:020000040000FA
:020000000528D1
:0800080013284E20A701F73078
:10001000A0008B173A202708432088003E202008A4
:100020008600A00D0A283A200B1818203E2009004F
:10003000722083120313A101A2010030861DA100CA
:10004000013E061CA100013E861CA100013E061DCA
:10005000A1002108061EA200033E861EA200033E48
:10006000061FA200033E861FA2000B102208031DDC
:10007000A7000800A400030EA5000800250E8300B9
:10008000A40E240E080082077E3430346D34793497
:1000900033345B345F3470347F347B348316031322
:1000A0000730810083160313F03095008312031389
:1000B00008308B0083160313F03096008316031765
:1000C0008801890183120313860183160313F0301C
:1000D0008600831203138801831603138801031318
:1000E000831208002F30A900FF30A800A80B762843
:0600F000A90B74280800B2
:02400E00E127A8
:02401000FF3F70
:00000001FF
